:1000000000B60020B16A0000697801009D6A000016
:100010009D6A00009D6A00009D6A000000000000CB
:10002000000000000000000000000000A56B0000C0
:100030009D6A000000000000A16D00009D6A0000A4
:100040001D6E000049AA01001D6E00001D6E00001B
:100050001D6E00001D6E00001D6E00001D6E000074
:100060005FAA01001D6E00001D6E000075AA010050
:100070001D6E00001D6E00001D6E00001D6E000054
:100080001D6E00001D6E00001D6E00001D6E000044
:100090001D6E00001D6E00001D6E00001D6E000034
:1000A0001D6E00001D6E00001D6E00001D6E000024
:1000B0001D6E00001D6E00001D6E00001D6E000014
:1000C0001D6E00001D6E00001D6E00001D6E000004
:1000D0001D6E00001D6E00001D6E00001D6E0000F4
:1000E0001D6E00001D6E00001D6E00001D6E0000E4
:1000F0001D6E00001D6E00001D6E00001D6E0000D4
:10010000014B1B685B68184700000020014B1B680F
:100110009B68184700000020014B1B681B691847AB
:1001200000000020014B1B685B691847000000209D
:10013000014B1B689B69184700000020014B1B689E
:10014000DB69184700000020014B1B681B6A184739
:1001500000000020014B1B689B6A1847000000202C
:10016000014B1B68DB6A184700000020014B1B682D
:100170001B6B184700000020014B1B68DB6B184706
:100180000000002030B4044C9DF80850246802950B
:10019000E468A44630BC604700000020014B18789A
:1001A000704700BF6C0B0020FD2E0000032F0000E5
:1001B000052F00002B2F0000092F0000352F000015
:1001C0000F2F00003F2F0000152F00004B2F0000C5
:1001D000212F0000252F0000172F00001D2F0000E9
:1001E0003B2F0000452F0000042810B511D883B123
:1001F00004280CBF10242824A1420AD2064C54F82B
:10020000200018B141568A42A8BF0A461A70002041
:1002100010BD6FF01500FBE74009002030B5034624
:10022000114890F91C209A4219DD90F924209A4235
:1002300017DA9A1A846AA05C0C4A15569D420DD0B2
:100240000E32002918BF01309442C0B206D129B144
:10025000013BDBB2012B01D80130C0B230BD0D2013
:10026000FCE70020FAE700BF4009002040DA010067
:1002700008B5054B93F91C30984203DAFFF7CEFF1F
:10028000024B1B56184608BD4009002040DA010009
:1002900008B5184B93F82C20FAB9012283F82C20CA
:1002A000154A1268A2F10800082803D81349014131
:1002B000C90709D5911F092910D9013212D04FF46D
:1002C000DF71742002F010F90D4A9A62D8221A6286
:1002D00083F8242008229A611A7708BD094A0A4146
:1002E000D207ECD4084A9A62D8221A6283F82420F2
:1002F0000422F0E740090020F00A0020DEFEFFFFA4
:100300007BDA0100EEFCFFFF4EDA010010F0FF0087
:1003100008B508D14FF0804301225A60C3F80001AC
:10032000034B187008BD7C21B52002F0DDF800BF3A
:100330006D090020014B01221A7070476D090020E1
:1003400008B548B94FF08043D3F8003113B9044BD6
:10035000187808BD0120FCE7C221B52002F0C4F8DE
:100360006D090020044B1868062818BFB0F1FF3F44
:100370000CBF012000207047F00A002008B5094B8F
:100380001A680A2A02D1084B1B6823B1FFF7EAFF5B
:1003900008B9082A04D14FF080430222C3F8342C54
:1003A00008BD00BFF00A0020F40A0020F8B50F4E87
:1003B0000127375404460D4602F0D6FD60B934B922
:1003C0004FF08043B7707560C3F80473F8BD40F216
:1003D00025116D2002F088F8002DF7D01CB92046B9
:1003E000A8477460F2E74FF4A071F2E770090020AB
:1003F000044B191800228A7003EB80011A544A60DA
:10040000704700BF70090020014B9881704700BF02
:1004100070090020014B9889704700BF70090020C7
:1004200010B5EFF3108472B6064B03441A7C013208
:10043000D2B21A741B7C012B01D102F089FD04B9E0
:1004400062B610BD7009002010B502F0B5FD02F0D3
:100450008BFD4FF08044084940B1FFF78FFF012327
:10046000236104238B740023CB7410BD03238B748E
:100470000123C4F80433F6E77009002010B5EFF348
:10048000108472B6094B03441A7C22B940F25721FA
:100490006D2002F029F81A7C013AD2B21A741B7C42
:1004A0000BB9FFF733FF04B962B610BD7009002025
:1004B000024B987C003818BF01207047700900205B
:1004C00073B51B4D6B7D63B9286A00F0030002F021
:1004D00063FD30B1EFF3108372B6AA7C1AB103B991
:1004E00062B602B070BD0122AA7403B962B64FF0C1
:1004F00080430822C3F808234FF42073ADF8063078
:10050000BDF80640A4B2631E9BB2ADF80630002CC5
:10051000F6D14FF080460748C6F80C4102F095FD31
:1005200085F82540FFF790FF0823C6F80433D8E785
:1005300070090020940900202DE9F347484C237DE1
:10054000002B00F08A800323ADF804304FF0804385
:10055000D3F80051F5B9D3F80481B8F1000F09D0F0
:100560004FF080430022C3F804210222C3F808237D
:10057000FFF7A6FF94F825603A484FF08047F6B29F
:10058000D7F80C8102F065FD48B340F243316D208D
:1005900001F0AAFF00258DF804500122D3F8048150
:1005A000C3F808230DF10409271DA61C19F8010B37
:1005B00003280AD0337843B13B684FF0000A86F82D
:1005C00000A013B19847C7F800A06B1C022B07F1DD
:1005D000040706F101064FF00105E7D1BDE745B17B
:1005E000A37C032B05D10423A374FFF7C7FE0123CB
:1005F0003B61B8F1000F1FD04FF080430022C3F8D9
:100600000C21A37C042B02D040F26931BFE7164BCA
:100610001A680A2A02D1154B1B6823B1FFF7A2FE04
:1006200008B9082A04D14FF080430022C3F8342CC3
:100630000223A37402F0C3FC4EB1002384F82530DA
:10064000A37C022B01D1FFF7FFFE02F0B8FC0548A6
:1006500002B0BDE8F04702F00BBD02B0BDE8F08784
:100660007009002094090020F00A0020F40A0020FC
:1006700010B5054C206A00F0030002F08DFC002844
:10068000F8D0002010BD00BF70090020F8B5054665
:1006900050B10278042A07D8437842B9013B1F2B96
:1006A00002D88378212B07D96FF0150075E0002B55
:1006B000FAD18378002BF7D17B4B0127C3F88070E8
:1006C000BFF34F8FBFF36F8F4FF08046C3F8807139
:1006D000764C0B23C6F808330023C6F80031C6F861
:1006E0000431C6F80C3123746374AB88E38102F0E3
:1006F0003EFC08B127702774D6F80C24D6F80C34C9
:10070000D20303D5DF0701D5FFF714FE4FF4AF6323
:10071000A3812B78A978637500222262A175E27407
:10072000042B4DD8DFE803F005033A484A000123C3
:10073000236202F023FC00284DD002F026FC236A3D
:1007400003F00303984246D1AB79002B3DD1FFF76C
:100750008FFFA37D6BB12B785BB902F005FC0546DA
:1007600001F046FF6FF00043002D00F09980C4E9CE
:1007700006034FF08043D3F80C24D3F80C34D20393
:1007800003D5DB0701D5FFF7D5FD474A012300203C
:10079000A0742375C2F880311360F8BD02F00CFC20
:1007A0004FF08043D3F80C14D3F80C24CE03F9D5C2
:1007B000D007F7D50223BBE73D4BB9E73D4BB7E781
:1007C00040F21E516D2001F08FFE4FF08043022257
:1007D000C3F80423BDE74FF080430122DA60002212
:1007E000C3F80421226AC3F81825334A1368A3F119
:1007F0000E01012904D90A2B02D0FFF7B3FD48B13D
:100800004FF080534FF08041D3F84432C3F342336A
:10081000C1F83C351368A3F10E02012A04D90A2B52
:1008200002D0FFF79FFD20B14FF080430122C3F8B3
:100830004C254FF0804301229A600222C3F8042322
:10084000AA79002A85D1D3F80423910702D440F273
:10085000D141B7E7194A1669116941F010011161D8
:10086000D3F8043106F010060BB902F00EFC4FF07D
:100870008047D7F8043183B1FFF7FAFE26B90F4A53
:10088000136923F0100313614FF080430222C3F871
:1008900008230022C3F804215BE702F0F4FBE8E739
:1008A000C4E9063065E700BF00E100E07009002000
:1008B0000100020001000300F00A002000ED00E04A
:1008C00010B50D4C04F1240002F0C3FB48B9A37C21
:1008D000022B01D1FFF7B8FDBDE81040074802F038
:1008E000C7BB074A012384F82530BDE81040C2F891
:1008F000003102F061BB00BF7009002094090020A4
:1009000000E100E038B50C4B0C46197919B1832190
:100910006F2001F0E9FD60B95D790DB1002038BDAF
:1009200001225A71FFF77CFD21462846FFF73EFD64
:10093000F4E76FF01500F2E79809002038B50B4D89
:100940002B7904461BB19A216F2001F0CDFD50B9DF
:100950006B790BB9002038BDFFF74AFD20466C715A
:10096000FFF78CFDF6E76FF01500F4E7980900201B
:10097000014B9B68184700BF98090020014BDB68BA
:10098000184700BF98090020014B1B69184700BF9A
:1009900098090020034B1A790AB9FFF73BBD988AE2
:1009A000704700BF98090020024B1B790BB9FFF775
:1009B00087BD704798090020014B9B69184700BF0D
:1009C0009809002010B5144C2379A3B1636A9847A5
:1009D000002806DB94F82E3023B1012384F8303050
:1009E000002010BDFFF7E8FF0028F6DA40F28D1175
:1009F0006F2001F079FD094BA361094BE361094BBD
:100A00002362094BA360094BE360094B2361FFF7A5
:100A10003DFE0028E1D0E4E79809002071060000BF
:100A2000C1080000B1040000B92F0000BF2F000072
:100A3000C52F000038B5084B1D79044625B140F29A
:100A4000E1116F2001F050FD00F0E0FE2046FFF7BD
:100A5000DBFC284638BD00BF9809002008B50748D0
:100A600000F0C2FE054800F01BF801F0BBF801F0F1
:100A70009DF800F087FA012008BD00BFCC090020D6
:100A800001F04EBA103000F0E3BE00BF00F0F8BE37
:100A900001F042BB08B52721032001F025FD00BF6E
:100AA000024B186000221A719A607047D409002026
:100AB00070B582B01E4C2379012B11D0DAB2022A14
:100AC0000BD1A0680DF1070100F082FA0023A360AA
:100AD00023719DF8070002B070BD012002B070BD07
:100AE000A0680DF1070100F069FAA5686B7DDB07CE
:100AF000ECD5AB7F042BE9D000F006FF06460028BA
:100B0000E4D000F007FF2A69B3682E686D68961973
:100B100045F1000500220A3342F100021B1842EBA6
:100B20000102B342AA41D1D3A06800F0C3FBCDE7D4
:100B3000D4090020837F0BB10020704710B50A68EC
:100B40004B688C68D1F80CC0C0F80CC0846002609F
:100B500043600A694B694361012402618477054B54
:100B60001A792AB998601C7100F064FE204610BD05
:100B7000FFF790FFD409002070B5044682B00D46FF
:100B800000F0C2FEA37F012B17D02B686A68A9680A
:100B90000646E868E060A160236062606A692B69CC
:100BA000626101222361A2770DF10701204600F066
:100BB00005FA2EB1012002B070BD002002B070BD58
:100BC000024B0421186802F011FAF3E7D40900205F
:100BD000024B0621186802F009BA00BFD4090020B0
:100BE00070B5054600F090FE08B3044600F092FE92
:100BF000A4680346E41841F100062846334622461D
:100C000000F0EAFAA04271EB06034FF000050CD3A6
:100C1000001B6FF0010361EB0601834275EB0101DC
:100C200000D370BD4FF0FF3070BD284670BD40F25C
:100C30002911032001F058FC2DE9F04104460F462C
:100C400000F062FE10B38568002362195B4106461E
:100C500013B10020BDE8F08100F05CFE2A1841F1DC
:100C600000033846A51843F1000800F0B5FAA84281
:100C700071EB0801EDD301F053F900F0C1F9B3684D
:100C8000377523440120B360BDE8F0814FF4A371B0
:100C9000032001F029FC00BF00F03CBE1C4B18688B
:100CA000A0B350E9063130B550F8104C13F10A02E8
:100CB000036841F100011519A0F1180041F1000C81
:100CC0001BB922E014D31B68FBB153E90621AA42E9
:100CD00071EB0C0419D290F814E013F8044C74452D
:100CE000F0D19C88B0F81CE0A4EB0E042404EAD5F3
:100CF00053F8100C0A3241F100018518A3F11800D5
:100D00001B6841F1000C002BDFD130BD704700BFE4
:100D1000E009002070B5264D00236B60EFF31081D1
:100D200072B6AA686A60AB60EB6009B962B66A68BD
:100D300072B3204C00269379032BA2F1180028D01F
:100D4000136873B39A79042AA3F118038446A6465C
:100D50000FD1818B9A8B521A12049A6944BF0CF1FD
:100D6000180E184642B19C46A2F118039A7F042A35
:100D7000EFD09B7F032B16D1DEF800201368CEF84E
:100D800000300221C368867798476A68002AD2D16A
:100D900070BD116852F80C3C96716960012198474A
:100DA000F3E7A646EAE763219F2001F09DFB00BF21
:100DB000E0090020E40900202DE9F04F6F4B0468A2
:100DC0001B68456883B08283427D0646894602F0EF
:100DD0000102002B00F0CB80A3F1180C002A6ED08A
:100DE000DCE90001844275EB0107644A2FD39CF8CB
:100DF0001420337D9A421BD8DCF808301B1841F1CF
:100E0000000113F10A0E41F10007744575EB07026A
:100E100080F0A8803269121945F10000964577EB01
:100E2000000801D2724638469A428841C0F082805A
:100E3000DCF818300CF11802002B00F09180A3F1BF
:100E4000180CDCE90001844275EB0107CFD21F4684
:100E50006346B068001945F10008002B44D0CDE985
:100E60000027CA46D3E9007110F10A0C48F10002CC
:100E7000674571EB020245D21A7D96F814C094457D
:100E800019D39A68D21941F1000112F10A0941F10E
:100E9000000E4C4575EB0E0745D237693F1945F1F9
:100EA000000CB9457EEB0C0B01D24F46F44697423D
:100EB0007CEB010C3DD39B6923B3183BD2E7DCE903
:100EC0000001844275EB01012C4A0CD3DCF8183088
:100ED0000CF118023BB1A3F1180CDCE900018442CB
:100EE00075EB0101F2D21F46334643F8187F1360B9
:100EF000FFF7D4FE864210D0002389F8003003B0FB
:100F0000BDE8F08FDDE900273346D14643F8187F6E
:100F10001360FFF7C3FE8642EED1012389F800304B
:100F200003B0BDE8F08F2746AC4697427CEB010C3E
:100F3000C1D2D146114A0423B37791680023337696
:100F40007376B376F37606F118020C4B69B1DB6861
:100F50001A600B4B09491878CA6001F09FFBCBE778
:100F60001F4676E7224628465EE79A60F1E712B907
:100F70001746024AB8E7014A1F466AE7E00900201F
:100F80000400002010B50A4C2378FF2B0AD1094831
:100F900001F06AFB084B207000221A609A60DA6048
:100FA0001A8210BD4FF48D719F2001F09DFA00BF91
:100FB00004000020150D0000E0090020034B1A8AF0
:100FC00002F1010CA3F810C0FFF7F6BEE009002003
:100FD00038B504460D46FFF761FE0346E31AB3FA3F
:100FE00083F35B0905482B7004F1180102F024F823
:100FF00010B10023A377012038BD00BFE009002015
:101000002DE9F0431F4E34686CB34FF000083546AD
:10101000C6464FF004092346246853F8187C53F859
:10102000082CD21953F8147C47F1000C82427CEB57
:10103000010C1AD22A6812682A6083F80690B268F6
:1010400083F800E083F801E083F802E083F803E02E
:101050007AB1F2681360F3604FF00108002CDAD126
:10106000B8F1000F07D1BDE8F0831D46002CD2D1A6
:10107000F6E7B360EFE7044BBDE8F043187801F002
:101080000DBB00BFE0090020040000202DE9F8435B
:10109000484E3468002C00F087804FF000080F465F
:1010A0000546B14641464FF0040E2346246853F8E6
:1010B000180C53F8082C121853F8140C40F1000CBB
:1010C000AA427CEB070C69D2D9F800201268C9F853
:1010D000002083F806E0B268197059709970D970D1
:1010E000002A5FD0F2681360F3604FF00108002C13
:1010F000DBD1B8F1000F03D02F4B187801F0CEFAF6
:101100003368002B50D053E90612A94272EB070056
:1011100053F8100C3CBF29463A46A3F1180C0A308C
:101120004FF000041B6844F10004091842EB04026C
:101130001BB92DE016D81B6853B353E90604884247
:1011400074EB020E24D29CF8148013F804ECF045E2
:10115000F0D1B3F804E0BCF81C80AEEB080E1EF42E
:10116000004FE8D0854277EB040E294638BF014690
:1011700053F8100C3A46A3F1180C38BF22461B68EE
:10118000091842F100020A3142F10002002BD4D1C9
:101190000CF1180373616046BDE8F8839946002C92
:1011A00083D1A6E7B3609FE700239C467361604646
:1011B000BDE8F883E00900200400002010B5054CCC
:1011C0006169204601F038FF18B1606900231838C2
:1011D000636110BDE00900201C49096839B3A1F121
:1011E000180C9CF8141081421DD870B5DCE9004140
:1011F00012F10A0543F1000EAC4271EB0E0620D24B
:10120000DCF81060341941F10001AC4271EB0E01C1
:1012100015D2DCF8181071B1A1F1180C9CF814105B
:101220008142F6D8E2E7DCF818100029D7D14FF058
:10123000FF30014670474FF0FF30014670BD2C462D
:101240007146B4F10A0041F1FF3170BDE0090020A0
:1012500010B5837F022B06D0837F012B02D0837FC2
:10126000042B1DD110BD437D13F0020313D10321C4
:101270000E4A81779468037600F1180143768376ED
:10128000C3765CB1D3681960094BD160BDE81040EA
:10129000187801F003BA0023837710BD9160F3E75B
:1012A0004FF4FF719F2001F01FF900BFE0090020FB
:1012B0000400002070B5114D00F1180604463146B7
:1012C000284601F0B9FE98B10423A377AA68002349
:1012D00023766376A376E37642B1EB681E60084B13
:1012E000EE601878BDE8704001F0D8B9AE60F6E75E
:1012F0004FF402719F2001F0F7F800BFE0090020D1
:1013000004000020024B0521186801F06FBE00BFE9
:10131000F8090020054B586810B1C368052118472B
:1013200010B54FF41B71B02001F0DEF8F809002071
:101330002DE9F0471646002B55D0D3E900894B4CD8
:10134000804579EB0103A38A3CBF8046894664331C
:10135000B8EB000569EB01070022AB422261BA41FC
:10136000C4E9028916DBA36903F2A3139D4277F156
:10137000000769DA3E4AC4F8288040464946C4F866
:101380002C9000F0F1FC3B4A052384F830303260A9
:10139000BDE8F087627F237F1AB19A071ED400222E
:1013A000627703F0010AA36903F2A3139D4277F168
:1013B00000072EDABAF1000FDCD0A08A2C4AB8EB75
:1013C000000069F10001C4E90A0100F0CDFC062328
:1013D000284A84F830303260BDE8F087236A012063
:1013E0009847237FDBE7214C637F2BB1237F9B074B
:1013F00002D5236A012098470025657700F05EFF3B
:10140000FFF7BCFA2B461C4A84F830303260BDE846
:10141000F08700F053FFFFF7B1FAA08AA369BAF191
:10142000000F01D0984215D8B8EB0300104A69F1BB
:101430000001C4E90A0100F097FC02230D4A84F878
:1014400030303260BDE8F08700F038FFFFF796FAE1
:10145000A369E9E7B8EB0000054A69F10001C4E9B6
:101460000A0100F081FC034A01238EE7F8090020FD
:1014700005130000C1150000B917000002392DE95D
:10148000F04104292DD8DFE801F00309292C0C00D4
:10149000164A137F003B18BF012353770020BDE895
:1014A000F081044600F02CFC00F03AFD0E460746A1
:1014B000FFF7ECFD0D4D80466868FFF7C9FE224638
:1014C000384631464346002400260027C5E9026716
:1014D0006C60FFF72DFF0220BDE8F081FFF7E8FA0E
:1014E000DCE740F21721B02000F0FEFFF8090020F1
:1014F0002DE9F84F2E4C637FA769804683BB94F893
:101500001C9019F0010934D100F00AFD10EB070B13
:1015100041F1000A05460E4658465146FFF7B6FD12
:10152000A8B3D0E900329B457AEB02011BD300231C
:10153000204AA56228463146C4E902BAE662236120
:1015400000F012FCB9F1000F18D0A38A1A4A9F428A
:1015500016D0022384F83030C8F80020BDE8F88F98
:101560004FF00009D0E7DD1B9B4662F10006924672
:10157000DDE7A38A9F4238BF1F46C5E70E4AE8E76A
:10158000012384F83030C8F80020BDE8F88F637F6D
:101590002BB1237F9B0702D5236A012098470023A4
:1015A000064A84F830306377C8F80020BDE8F88F29
:1015B000F809002005130000C1150000B91700004C
:1015C000023970B50546032900F2EB80DFE801F02F
:1015D00006024508754B002283F83120002070BDBB
:1015E000724C94F830301A1F012A40F29F8000F0AC
:1015F00097FCA26A2369801A9842B8BF184694F8EB
:1016000030302061022B7FD0237FD90740F1C48086
:10161000607F002840F0C080236A984701236377E9
:1016200094F83020022AD4E902034BD0012A70D06A
:101630002269323843F1FF31101841EBE2715C4A04
:10164000C4E90A0100F090FB94F83030062B0CBF7F
:101650000523042384F83030C0E7544C94F830302C
:10166000042B0FD8022B25D8013B012B00F28F80D1
:10167000FFF71EFA0028B1D000F040FC2846FFF723
:1016800037FF15E0053B012B00F28180FFF710FAD0
:101690000028A3D000F032FC00F042FC06460C46C5
:1016A000FFF7F4FC2A46034621463046FFF740FE8A
:1016B000022070BDFFF7FCF900288FD0012384F8C9
:1016C00031308BE7227FD2070ED5627F62B9A18AC3
:1016D000374A401A63F10001C4E90A0100F044FBF3
:1016E000032384F8303079E72169314A323843F1F5
:1016F000FF33401843EBE171C4E90A0100F034FB09
:10170000042384F8303069E700F0D0FDFFF730F9AA
:1017100086E7A169264A401A63F10001C4E90A017B
:1017200000F022FB022384F8303057E7042B94F8B2
:10173000316019D0002EAFD1FFF740FD0028ABD0AB
:101740006060C4E90D6600F0CFFA60680223837719
:101750003146C3689847D4E90201FFF751FC154BA5
:1017600084F830602B60A3E700F0B0FD0028E1D1E1
:1017700000200021FFF78AFC08B1FFF79BFD00F075
:101780009DFDFFF7FBF82846FFF7B2FE90E74FF408
:10179000CD71B02000F0A8FE40F2B311B02000F0EF
:1017A000A3FE40F2F111B02000F09EFEF8090020E7
:1017B000051300007D140000032910B506D8012987
:1017C0000AD840F25D11B02000F08EFE0429F8D155
:1017D0000446FFF76DF908B9002010BD2046FFF759
:1017E00087FE022010BD00BF10B5064A064C0260FD
:1017F0000023206084F830302377FFF7CBF8513096
:10180000A06110BDB9170000F809002008B5074B0A
:10181000074A19680968914202D15130986108BDA0
:1018200040F25121B02000F05FFE00BFF809002017
:10183000B917000010B5EFF3108472B6034B042102
:10184000186801F0D3FB04B962B610BDF809002096
:1018500008B5094B5A684AB1D3E902218018BDE89E
:101860000840064A41F1000100F07EBA40F27221C0
:10187000B02000F039FE00BFF80900201513000069
:1018800008B5064B5B681BB1BDE8084000F036BBED
:101890004FF41E71B02000F027FE00BFF8090020B1
:1018A00008B5054B5A680AB1586308BD40F27E215D
:1018B000B02000F019FE00BFF809002008B5054B64
:1018C0005A680AB1986308BD4FF42171B02000F046
:1018D0000BFE00BFF8090020044B9B6B03B11847B7
:1018E00010B540F28A21B02000F0FEFDF80900207A
:1018F000044B5B6B03B1184710B54FF42471B02053
:1019000000F0F2FDF8090020014B5868704700BF55
:10191000F809002008B5054B5A6812B1D3E9020155
:1019200008BD40F29B21B02000F0DEFDF809002048
:10193000054B1B681BB1D3E908200421104710B5E3
:101940007221452000F0D0FD380A0020054B1B68AD
:101950001BB1D3E908200321104710B56C214520A5
:1019600000F0C2FD380A00202DE9F04104460D4682
:1019700079B9174F3B683BBB16483C60FFF790FFB7
:101980001548FFF79BFFFFF787F9637D5B07064666
:1019900005D4D4E908302946BDE8F0411847FFF7DF
:1019A00077F82036361A7E6000F036FB0028FBD030
:1019B0000A4B0022C3F8A8252946C3F8AC25D4E970
:1019C0000830BDE8F04118478621452000F08CFD25
:1019D000380A00204D1900003119000000F00140C4
:1019E000024B00221A601A81704700BF380A00209B
:1019F00008B5074B1A683AB10648D0600021196053
:101A0000BDE80840FFF7E4B8B921452000F06CFDBF
:101A1000380A002069190000C0E9081220220021BC
:101A200000F0D2BE30B587B04B7A00220D46059249
:101A3000CDE900220492C3F3800282F001024FF04C
:101A4000000162F3820104462A78287A8DF8151085
:101A50008DF8140069682B4802910390002A40D148
:101A6000D5E904209DF815C01CF0040FCDE9002035
:101A700028D19DF815202449C3F340035B0043F0AF
:101A8000010322F0030213438DF815304B68C3F3B2
:101A900008038BB1103B5BB2002B1CDB03F16043EE
:101AA00003F5614393F800335B092BB9694620467F
:101AB000FFF762F807B030BD69462046FFF73AF8F5
:101AC00007B030BD203A01F1200140F1FF30009213
:101AD00002910190CDE703F00F0319440B7D5B09E0
:101AE000E3E72B690493FEF7CBFF9DF815305B0706
:101AF000CDE9000104D5029A6B7A20320292B8E750
:101B00006B7AB6E76919000000ED00E008B50A4BF2
:101B10001B6863B15B7D5B0705D5FFF7BDF820301F
:101B200041F1000108BDBDE80840FFF7B5B84FF42A
:101B3000EE71452000F0D8FC380A002070B4EFF3B5
:101B4000108672B617490D78ADB1174BD3F804451E
:101B5000D3F848314FF6FF7294421FD0E3B147F6F5
:101B6000FE739C4218D84B68013306B962B6C0E9CF
:101B7000004370BC70470C4AD2F80445D2F80431D7
:101B800053B14B6801334B60C2F80451D2F804459D
:101B9000D2F80431002BF4D14B68E6E7002BFBD1DF
:101BA0001C46F9E7700A002000B0004010B50A4C4E
:101BB000002222742277094B094801215960C3F899
:101BC0004025C3F840214FF400221961C0F80825D0
:101BD00000F0B2FD206210BD700A002000800040BD
:101BE00000F001403749384BF0B44D6A374C0022C1
:101BF00001204A6058609860C3F80843C3F848431E
:101C0000C3F80421C3F84021C3F84421C3F8482194
:101C1000002D55D02E4C2F4EC4F8A8652E4AC4F87E
:101C2000AC55C4F85C394FF40023C4F804350523DF
:101C3000C2F840351060D2F84031002BFBD0244868
:101C4000002301244FF40025C0F808555460D460E7
:101C5000C2F84031C2F84035C0F8A835C0F8AC35FC
:101C6000C0F8AC350B7833B391F8284018481649C2
:101C70001A4E1B4DE30003F1804303F5F8330122B4
:101C8000A2404FF6FF774FF48024C0F80825C1F832
:101C90004443C1F84875C1F80443C3F81065C3F85C
:101CA0001455C0F804250F4B4FF40062C3F880218F
:101CB000F0BC1A607047044B0222C3F80423F2E719
:101CC0001860CFE7700A002000B000400200070053
:101CD00000F00140408100400080004048B10040D9
:101CE00008B0004000E100E0044B4FF080411A6A68
:101CF0000123C1F808351360704700BF700A002047
:101D000010B4144C1449154A0023C4F8A835012016
:101D1000C4F8AC354FF0FF3448600861C1F808439F
:101D20000F4891684FF48074C0F8804141B10D496B
:101D30004FF48030C1F808031374C1F84031936048
:101D4000126A10BC4FF080410023C1F808351360BF
:101D5000704700BF00F0014000800040700A002082
:101D600000E100E000B00040F0B55A4CA36883B039
:101D7000002B40F09F802578A260002D5CD1564B4F
:101D8000994200F29C80430F544E554F43EAC101E3
:101D9000A6FB0132C0F34F33920B03EB014307FB69
:101DA0001233A6FB03639B0B43EA02434D4A02FB3B
:101DB0001300420B48F2376101FB02F2120C43F6AA
:101DC0000957494907FB120000FB01F1490D43F691
:101DD000085601EB422207FB0161B0EB512F88BF8F
:101DE00001320026002D41D01F0C1B049D186846AF
:101DF00047F10007FFF7A2FEDDE90032053346F1A7
:101E000000064FF48031E2FB01369D4277EB060677
:101E100047D32A0C4FF6FF71ADB242EA0742002DBC
:101E200008BF0D4631494FF48030C1F84055E2609B
:101E3000C1F8040303B0F0BD2D4B994244D8430DC3
:101E4000264E274F43EAC121A6FB0132C0F34F13B0
:101E5000920B03EB014307FB1233A6FB03639B0BBF
:101E600043EA0243234A02FB1300A2E71F0A1B06B0
:101E70009E18684647F10007FFF760FEDDE9003273
:101E8000053345F100054FF08071E2FB01359E42BC
:101E900077EB050505D3320E42EA072226F07F458F
:101EA000C0E7FF232374144B4FF40062C3F80021F2
:101EB00003B0F0BD40F2F921052000F015FB4FF40E
:101EC0009471052000F010FB40F22311052000F072
:101ED0000BFB00BF700A0020FF7F841E83DE1B43C4
:101EE000000024F40080841E6F0C010000B000404C
:101EF0007F841E0080841E0000E100E0064B9A688B
:101F00004AB106494FF48032C1F8082300221A74FE
:101F1000C1F840219A607047700A002000B000406C
:101F200070B4EFF3108572B6364C207820B3364B80
:101F3000D3F80425D3F848614FF6FF739A4252D084
:101F400043F60951C2F3080301FB03F3500A01FBF6
:101F500000F003F5807300EB53200021002E45D0E4
:101F600047F6FE739A4241D86368013325B3274A86
:101F700070BCE3FB02017047234AD2F80435D2F863
:101F8000041111B3636801336360C2F80401D2F82D
:101F90000435D2F804110029F4D143F6095CC3F3E7
:101FA0000802580A0CFB02F202F580730CFB00F0E9
:101FB00000EB532063681DB962B62278002AD6D19F
:101FC000134AE3FB020170BC704743F60956C3F3A2
:101FD0000802580A06FB02F306FB00F003F58073C3
:101FE00000EB5320E6E71EB10A4800216368BDE715
:101FF000636815B928462946DEE7044A304631466B
:10200000DFE700BF700A002000B0004080841E009F
:102010000080841E61841E0070B4EFF3108072B6DD
:10202000384A15780DB3384BD3F80455D3F84861C6
:102030004FF6FF739D4256D043F60954C5F308018D
:1020400004FB01F16B0A04FB03F301F5807103EB60
:1020500051230024002E49D047F6FE718D4245D809
:102060005168013108B3294824E02749D1F80435E3
:10207000D1F804414CB3536801335360C1F80451A3
:10208000D1F80435D1F80441002CF4D143F6095CB1
:10209000C3F308010CFB01F15B0A01F580710CFB35
:1020A00003F303EB5123516818B962B61078002886
:1020B000D9D11748E1FB0034D2E90C128B4294418C
:1020C0002CBF0120002070BC7047C3F3080143F609
:1020D00009555B0A05FB01F105FB03F301F580716E
:1020E00003EB5123DFE71EB10A4B00245168B9E727
:1020F000516810B903460446D7E7044833463446CE
:10210000D8E700BF700A002000B0004080841E00A5
:102110000080841E61841E002DE9F047DFF8748181
:102120005D4E012100234FF4002284B0C8F8041052
:10213000C8F84035C8F84031C8F81010C6F808256E
:10214000D8F8042522F00302C8F80425D8F8082599
:1021500042F00302C8F80825102292FAA2F2B2FA5D
:1021600082F2092A00F39180C8F810254B4A4C4F9F
:10217000C8F80C104FF48070C2F880011060494A12
:10218000C8F80410C8F80C10C6F8A8253A78C6F8A4
:10219000AC8502A8002A56D0019306E00123C6F8B8
:1021A00008A5C8F80430C8F80C30FFF7C7FCDDE913
:1021B0000243019D4FF4002A4FF48039C6F804A56C
:1021C000E3FB0945FFF7BAFCDDE902320199E2FBC6
:1021D0000931A94208BFA342E0D1013443F60952B4
:1021E000C4F3080345F1000502FB03F3210EC4F319
:1021F0004E2441EA052102FB04F02D0E03F5807305
:1022000000EB53204C016B01641A43EAD16363EB8A
:102210000506B201A3011B1B42EA946262EB0602AF
:10222000D20042EA5372DB005B1845EB0205E9037A
:10223000DA03801841EA534141F10001C7E90C017A
:1022400004B0BDE8F087019206E00123C6F808A5B6
:10225000C8F80430C8F80C30FFF770FCDDE9024321
:10226000019D4FF4002A4FF08079C6F804A5E3FBE6
:102270000945FFF763FCDDE902320199E2FB093110
:10228000A94208BFA342E0D1A7E7074840F29F3127
:1022900000F020F90080004000F0014000E100E083
:1022A000700A002000B10040E0E30100024B01226F
:1022B000C3F84423704700BF00B00040024B012226
:1022C000C3F84823704700BF00B0004008B5FEF7D0
:1022D0005BFB30B9074A936B0133312B936304D80E
:1022E00008BD044B00229A6308BD40F2F531052079
:1022F00000F0FAF8700A002010B53F4C237882B045
:10230000002B55D03D4BD3F8042352035BD43B4BF9
:10231000E168D3F80423D00334D5D3F84031002B3F
:1023200030D0636899425DD800232374334AA16892
:10233000C2F840314FF48030C2F80803002955D06C
:10234000A36088472D4BA169D3F80423920324D5B9
:10235000D3F844310BB363688B423FD3002222771A
:10236000264B6169C3F844214FF40030C3F80803D9
:1023700000293BD08847214BD3F840310193019B82
:1023800002B010BD6268237C002BCDD19142D9D917
:102390001A4B0022C3F84021D4E76268237F002B48
:1023A000DCD18A42E7D2154B0022C3F84421E2E790
:1023B000124AD2F804110029A9D0C2F80431636886
:1023C00001336360A3E7D3F84821002A9FD000229D
:1023D000C3F8482163680133636098E7237F002BCB
:1023E000E1D0BBE7237C002BD2D09DE740F2374100
:1023F000052000F079F800BF700A002000B000400E
:10240000014B1879704700BFB00A0020044B1A79BD
:10241000824283BF1B68602202FB003000207047AD
:10242000B00A0020BFF34F8F0549064BCA6802F47B
:10243000E0621343CB60BFF34F8F00BFFDE700BFE7
:1024400000ED00E00400FA05094B01225A604FF04C
:10245000FF32C3F80823074B4FF48042C3F88020B3
:10246000BFF34F8FBFF36F8FC3F88021704700BF5A
:1024700000E0004000E100E0094B01225A604FF00B
:10248000FF32C3F80823074B4FF48052C3F8802073
:10249000BFF34F8FBFF36F8FC3F88021704700BF2A
:1024A00000C0004000E100E0084B0022C3F8FC2F10
:1024B0000122C3F8FC2F064B0222C3F88020BFF391
:1024C0004F8FBFF36F8FC3F880217047001000401B
:1024D00000E100E008B572B6024B5B6803B19847B3
:1024E000FFF7A0FFB80A00201FB572B6134B5D6856
:1024F00095B9FFF797FF2346B2FBF6F25C1C002A62
:10250000F9D104AEDCB256FA83F303F80C2C0A229C
:1025100034B901A8A847ECE7024600230A26EDE7F4
:10252000631E04AEDCB256FA83F3B0FBF2F602FB94
:102530001600303003F80C0C3046E9E7B80A0020EA
:10254000F8B51F4E337805460C461746A3BB00F07E
:10255000E7F8FDF79DFE77603472FFF7A5FFFFF700
:102560008BFFFFF771FF174B002D14BF284618464D
:10257000FEF728FA0546E8B9FFF732FAFEF714FA33
:1025800000F023FDFEF76AFA18B9B8211120FFF711
:10259000ABFF002C0CDB04F01F026409A40004F163
:1025A000604404F5614401239340C4F88031236002
:1025B000012333702846F8BD4FF0FF35FAE700BF1E
:1025C000B80A0020ACDA0100074B93F90830002B61
:1025D00009DB5A09012103F01F03994002F140036E
:1025E000024A42F823107047B80A002000E100E0D8
:1025F0001A4B4FF4805270B5C3F88020BFF34F8F51
:10260000BFF36F8F164C174D0021C4F80011C3F8AB
:1026100080212E692B6943F010032B610123C4F83C
:10262000043306F010062360D4F800319BB11EB9C4
:102630002B6923F010032B610123D4F80805636094
:10264000C4F808330023C4F80031044B4FF480521F
:10265000C3F8802170BD00F016FDE5E700E100E061
:1026600000C0004000ED00E00B4938B5042301EB49
:10267000C302157905F0FF042DB1013BF7D24021CB
:102680006920FFF731FF41F8330001215471947143
:102690001171D8B238BD00BFC40A0020042808B5A3
:1026A00003D950216920FFF71FFF094B03EBC0003E
:1026B0000379012B01D05121F4E743798279013369
:1026C000DBB29A4218BF4371BDE80840FFF77CBFF8
:1026D000C40A002038B5114D052495F8281005EBE3
:1026E000C1031A79012A09D158799A79904205D003
:1026F0005A79D2B29A7155F83130984795F8283006
:102700000133DBB2052B04F1FF3428BF002314F0A2
:10271000FF0485F82830E0D138BD00BFC40A00208E
:102720004FF08052034BD2F830111960D2F83421A7
:102730005A607047F00A0020084B1B68083B082BC2
:102740000AD840F2211222FA03F313F0010F044BCE
:10275000044818BF1846704702487047F00A002026
:1027600000E701400C050040144B1B68062B03D00A
:10277000013301D020BF7047EFF3108072B6104ACA
:102780001369116941F0100111610E49D1F800215E
:10279000D1F804110A4303F0100300D040BF20BF5A
:1027A00000BF00BF00BF00BF23B9054A136923F073
:1027B0001003136100B962B6704700BFF00A002031
:1027C00000ED00E000E100E010F0030FC9B20346A5
:1027D00007D0BAB303F8011B13F0030F02F1FF3265
:1027E000F7D170B5032A01EB012404EB04441ED990
:1027F000161FB508032E05F1010521D94FEA550E24
:1028000003EBCE0E9C46CCE900440CF1080CF445D9
:10281000F9D115F0010F04D025F0010503EB850572
:102820002C6026F003060433334402F0030232B175
:10283000012A197003D0022A597018BF997070BD0F
:102840001D46EDE7704700BF014B1B681B6818472A
:1028500008000020014B1B685B6818470800002037
:10286000014B1B689B68184708000020014B1B6840
:102870001B691847080000208F3000009B300000C3
:102880009F300000A7300000AB30000038B50420B6
:10289000164CFEF7A5F92368984228BF1846042174
:1028A0000546FEF7C9F9D0B1FEF7F0F82368E068F5
:1028B000AB4207D1FEF7E6F8E268236822611344D1
:1028C000E36038BD05446089E56001232375281A5B
:1028D000FEF7D8F86289E3689B1A2361F1E70123C8
:1028E000E06823756389C01AF2E700BFF80A002088
:1028F00008B50C4B1A7802F0FF0312B15A1E1A42A7
:1029000003D0F8216B20FFF7EFFD19B1034208D186
:10291000FD21F7E723EA00039B0602D140F20111F3
:10292000F0E708BD0C0000200F4808B5012303762E
:10293000042380F8203090F8303083F0010380F8D1
:1029400021300368C36143688362084B022200F1AF
:10295000180138301A70FFF765F820B940F21F11DE
:102960006B20FFF7C1FD08BDF80A00200C00002015
:1029700070B5EFF3108572B6264C94F860600023B2
:10298000012E84F8603006D0022E1DD0002E3BD1DF
:1029900085F3108870BD85F3108894F8613003F0DA
:1029A000FF0123B140F25D116B20FFF79DFD142064
:1029B000FFF79EFF184B84F861601B78012BE9D16B
:1029C000BDE87040FFF7B0BF94F8612012B94FF432
:1029D000B771E9E7104984F861300B78023BDBB24C
:1029E0001E2B0ED8012202FA03F30C4A1342CFD158
:1029F00044F20402134204D020230B70FEF7F8FFC8
:102A0000C6E74FF4C571CFE785F310884FF4D8714E
:102A1000CAE700BFF80A00200C0000204100004077
:102A20002DE9F041254D2B7D04460E4623B1012BA7
:102A30000AD00020BDE8F0816A892B689B1A984271
:102A40008CBF00200120F5E7D5E91A78FEF718F8C9
:102A50002B691E3041F10001DB1948F10002984258
:102A600071EB020C07D21B1A62EB010222B1B021FA
:102A70006B20FFF739FD00239C421DD96B891B1980
:102A80001C18EB68DB19E41A322C38BF3224C6F16B
:102A90000401C9B22046FEF7CFF80028C9D0FDF7DF
:102AA000F5FFEB6868891C44201AEC60FDF7EAFF2B
:102AB0006A89EB689B1A2B610120BBE7F80A0020AA
:102AC00070B5114C94F8705025B140F28F216B20F5
:102AD000FFF70AFD0D4B84F8615001261E700C4B68
:102AE0000C484FF4C852C4E900230B4BA360FFF716
:102AF000BBFD0A4984F871002A4604F13800FEF74C
:102B00008BFF84F8706070BDF80A00200C00002074
:102B1000FF3F420F712900000500B700B92C0000EB
:102B200008B5104B93F8702022B94FF43E716B201A
:102B3000FFF7DAFCEFF3108172B693F8602022B150
:102B4000012A0DD04FF44271F1E7022283F8602090
:102B500001B962B693F87100BDE80840FFF79EBD69
:102B60000022F3E7F80A00200B4B93F8703010B501
:102B700023B940F217316B20FFF7B6FCEFF3108456
:102B800072B6064B1A78102A03D108221A70FEF783
:102B90002FFF04B962B610BDF80A00200C00002017
:102BA00010B5EFF3108472B6054B1B78042B04D1DB
:102BB000FFF736FF04B962B610BD0020FAE700BF88
:102BC0000C00002070B5EFF3108472B6134B1B7825
:102BD000042B20D1124D2B7D2BB96B892868C01A8C
:102BE00004B962B670BDFDF74BFFD5E91A622B69D7
:102BF0001E3041F100019B1942F10002984271EB35
:102C0000020508D2181A62EB0102002AE8D0B021AE
:102C10006B20FFF769FC0020E2E700BF0C000020FA
:102C2000F80A0020014B83F830007047F80A0020B2
:102C300038B5144C94F8703023B940F2CD216B2094
:102C4000FFF752FCEFF3108572B694F8603023B1B1
:102C5000022B0DD04FF43871F1E7012384F8603076
:102C600005B962B694F87100BDE83840FFF716BDAB
:102C7000054B1B780022042B84F86020F0D110F063
:102C800083FAEDE7F80A00200C00002008B5094B94
:102C900019781029CAB207D0202A05D0042A04D1F5
:102CA00010221A7010F080FA08BD40F2CF116B208C
:102CB000FFF71AFC0C00002038B50C46FDF7E0FECB
:102CC000052C48D8DFE804F0035D512B2664FEF79D
:102CD0001DFF324CC4E91A0101210220FFF708FE52
:102CE00094F861202E4B7AB104221A702368E360B5
:102CF0000023237594F86030022B01D010F044FAC1
:102D0000BDE83840FFF7C2BD20221A70BDE8384048
:102D1000FEF76EBE4FF406716B20FFF7E5FB1F4C0C
:102D200094F86130BBB11E4B1B78042B14D1237D6A
:102D3000012B0ED1FDF7A4FED4E91A5223695B19C9
:102D400042F100029842914103D3BDE83840FFF7B9
:102D50009DBF0BF0C9FB38BD124B0222C3F8802087
:102D6000BFF34F8FBFF36F8FF5E701210220FFF70D
:102D7000BFFD0A4B93F8613033B1BDE83840FFF72F
:102D8000D3BD01212820F2E7054B01221A70E2E7AA
:102D9000024B1B7D012BB3D1D7E700BFF80A0020FF
:102DA0000C00002000E100E07BB972B90029BEBF31
:102DB00000204FF0004106E008BF00281CBF6FF064
:102DC00000414FF0FF3000F057B8ADF1080C6DE94D
:102DD00004CE002909DB002B1ADB00F082F9DDF8B4
:102DE00004E0DDE9022304B07047404261EB410199
:102DF000002B1BDB00F075F9DDF804E0DDE90223B0
:102E000004B0404261EB4101524263EB430370471F
:102E1000524263EB430300F064F9DDF804E0DDE9BE
:102E2000022304B0404261EB41017047524263EB20
:102E3000430300F056F9DDF804E0DDE9022304B0B5
:102E4000524263EB4303704753B94AB9002908BFA4
:102E500000281CBF4FF0FF314FF0FF3000F00CB8DE
:102E6000ADF1080C6DE904CE00F03BF9DDF804E0AB
:102E7000DDE9022304B07047704700BF08B5FFF7D3
:102E80004FFCBDE80840FDF703BA801A00F30700C5
:102E900038B540B20D4659B21446FDF7E9F90023A2
:102EA00028706B70204440B238BD7FB5A0F10B0490
:102EB0000E46E1B20F29154603D950216420FFF7D1
:102EC00013FB0DF10B0332460420FDF78DF908B119
:102ED0005921F3E704EB840404F6651300909BB2D8
:102EE0009DF90B00042203A9FDF74CF99DF80C3065
:102EF0002B709DF80D306B7004B070BD0023036023
:102F000070477047002070474FF0FF3070474FF018
:102F1000FF30704770474FF0FF3070470020704718
:102F2000002070470023037070479DF80030002296
:102F3000FFF7ABBF4FF0FF307047002070474FF0F6
:102F4000FF3070474FF0FF3070477047C0B2704796
:102F5000C0B208B520B94FF0804301221A6008BD05
:102F60004D21B520FFF7C0FA0020FDF7E9B94FF079
:102F70008043D3F8080400F0010070474FF080430D
:102F8000D3F8140400F0010070474FF08043D3F8E9
:102F90001C0400F0030070474FF08042D2F8183450
:102FA000D2F81824C3F3004302F00302824214BF94
:102FB000002003F0010070470020FDF731BA002027
:102FC000FDF75CBA0020FDF7BBB970B5FFF718FA42
:102FD000002405462646E0B2854200D870BDFFF7C2
:102FE00015FA0134068580F82A60F4E7F8B503790C
:102FF00004461BB11B219D20FFF776FA467901712B
:1030000026B901234371217909B96171F8BD276897
:1030100026712046B84702280546F4D103212046F0
:10302000B84708B12F21E6E723682946204698478C
:103030000028E8D03021DEE70346006800B9704779
:103040008842F9D102681A60704703460020187060
:103050007047EFF3108272B603780121DBB2017082
:1030600002B962B6012B0CBF6FF02200002070473E
:10307000EFF3108372B60022027003B962B600202B
:103080007047FFF727BBFFF76FBBFFF76DBB00284B
:103090000CBF6FF015000020704700207047072319
:1030A000037000207047002070470020704710F820
:1030B000012B11F8013B012A28BF9A42F7D0D01A00
:1030C0007047034611F8012B03F8012B002AF9D1B0
:1030D0007047034613F8012B002AFBD1181A013858
:1030E00070472DE9F0478C468E46089E15460446EB
:1030F0001946002B40F0D080724547D9B2FA82F7CA
:103100004FB1C7F120030EFA07FC20FA03F3BD40CC
:1031100043EA0C0CBC404FEA154EA8B2BCFBFEF8CB
:10312000230C0EFB18CC08FB00F943EA0C4399452D
:1031300028D9EB1808F1FF3204D2994502D9A8F139
:1031400002022B44A3EB0903A4B2B3FBFEFC0EFB6B
:103150001C330CFB00F044EA0344A04214D92C19A0
:103160000CF1FF3304D2A04202D9ACF102032C448B
:10317000241A43EA02401EB1FC400023346073600D
:10318000BDE8F0874246DDE76346F1E7002A79D0E3
:10319000B2FA82F3002B3FD01946C1F1200302FAA4
:1031A00001F52EFA03F20EFA01FE20FA03F343EAC8
:1031B0000E034FEA154E00FA01F4B2FBFEFCAFB26B
:1031C0000EFB1C201A0C0CFB07F842EA004290454B
:1031D0005AD9AA180CF1FF3004D2904502D9ACF1AB
:1031E00002002A44A2EB08029BB2B2FBFEFC0EFBDB
:1031F0001C220CFB07F743EA02439F4246D9EB1817
:103200000CF1FF3204D29F4202D9ACF102022B44EE
:10321000DB1B42EA004202E0AEEB020301224FEA6E
:10322000154EAFB2B3FBFEFC200C0EFB1C330CFBA7
:1032300007F840EA034398452AD9EB180CF1FF3010
:1032400004D2984502D9ACF102002B44A3EB080349
:10325000A4B2B3FBFEFC0EFB1C330CFB07F744EAE5
:103260000344A74216D92C190CF1FF3304D2A7420C
:1032700002D9ACF102032C44E41B43EA00400F46A0
:10328000114678E71F2188E76046ABE76246BFE753
:103290006046DBE76346EFE7734506D916B90021C0
:1032A00008466DE7C6E9000EF9E7B3FA83F787B978
:1032B000734501D3824207D8841A6EEB03030120C1
:1032C0009C461EB900215BE73846FAE7C6E9004C88
:1032D000F8E7C7F1200CBB4022FA0CF51D4320FA99
:1032E0000CF12EFA0CF30EFA07FE41EA0E014FEA3A
:1032F000154900FA07F4B3FBF9F81FFA85FE09FB3C
:1033000018300B0C08FB0EFA43EA00439A4502FA08
:1033100007F240D9EB1808F1FF3004D29A4502D9E0
:10332000A8F102002B44A3EB0A0389B2B3FBF9F81E
:1033300009FB183308FB0EFE41EA03418E452CD9E8
:10334000691808F1FF3304D28E4502D9A8F10203AF
:10335000294443EA0040A0FB0298A1EB0E0141453D
:10336000CE46434602D306D14C4504D2B9EB020EF9
:1033700068EB05030138002EA4D0B4EB0E0261EB1C
:10338000030101FA0CFC22FA07F34CEA0303F940AB
:10339000C6E9003196E74046C5E74346D9E7000055
:1033A0002DE9F047064688B00F46904619F089FC93
:1033B0004FF47A73A0FB034503FB0155E40B012F87
:1033C00044EA45444FEAD53507D1294922462B46E0
:1033D000304613F05BFB002012E0D8F8047025485B
:1033E0003946FFF764FE70B123483946FFF75FFEA8
:1033F00048B1304621493A4613F064FB6FF00400AF
:1034000008B0BDE8F0872046294617A3D3E900237A
:10341000FFF7CAFC05460C4610461946184A002319
:10342000FFF7C2FC80460F46104619464EF6602252
:103430000023FFF7B9FC82468946104619464FF42F
:103440007A720023FFF7B0FCCDE902A9CDE906238B
:10345000CDE90401CDE900870A492A4623463046D2
:1034600013F014FBB7E700BF005C26050000000066
:1034700023E5010034E5010037E5010040E50100E6
:1034800080EE360058E501002DE9FF4714461A7C0E
:1034900007697D2A0E468146D968984600F2E58084
:1034A00007F58055931C28462B74113019F016FF30
:1034B00007F6F87A50460DF0EDFF012E07D9022EDF
:1034C0004CD06FF08504204604B0BDE8F08700239F
:1034D000ADF80D308DF80F3094F84A30C3F3400248
:1034E000C3F380038DF8093001238DF80B30644B52
:1034F0008DF8082007F5805093F8BC308DF80C301B
:1035000006F0010602A910308DF80A6008F0B8F93B
:10351000002849D15A4BD3F8B430002B3CD14FF09E
:10352000FF324FF0FF3350460DF08EFF95F8BA2072
:1035300094F84A3062F3410384F84A3095F8BB208E
:10354000DBB262F3820384F84A3095F89030052BA1
:103550002AD8DFE803F02C8D872629870023ADF8D1
:103560000C308DF80E3094F84A30C3F34002C3F3A8
:1035700080038DF8093001238DF80A30404B8DF817
:10358000082007F5805093F8BC308DF80B3002A965
:10359000103008F095F9BBE74246002148469847AD
:1035A000BDE76FF068048EE76FF004048BE7D5F891
:1035B0009C40002C87D007F58558D8E9003213438A
:1035C0004AD02478386800220023CDE90023002364
:1035D00021461A4605F0C0F9D5F89C100646002889
:1035E0003DD02246013115F01AFE002831DB95F856
:1035F000A83086F8483095F9A930AE339BB2FE2B3F
:1036000028BFFE2386F84930D8F80000D8F804C057
:103610004FF47A74A0FB040104FB0C1116A3D3E948
:103620000023FFF7C1FBC6E90801B262304615F07E
:1036300080FD3868314612F09AFB0024304615F0C0
:103640003EFDD5F89C0017F0D9FA0023C5F89C3050
:1036500039E76FF00B04F1E76FF02204F1E76FF048
:103660000B04EEE76FF022042DE76FF079042AE7F0
:103670006FF00F0427E700BF00CA9A3B000000006C
:10368000801B0020000000002DE9F34780464FF02A
:10369000FF364FF0FF3700F5906A4FF0FF334FF0E1
:1036A000FF3250460DF064FE436893F80090B9F184
:1036B000800F044641D800231A464946CDE90067E9
:1036C000D8F8000005F048F961684A46013105461E
:1036D00015F0A5FD814688BB237C85F8483094F918
:1036E0001130AE339BB2FE2B28BFFE2385F8493044
:1036F000A27C95F84A3062F3000385F84A30A0684E
:10370000D4F80CE04FF47A71A0FB010C01FB0EC160
:1037100011A3D3E90023FFF747FBC5E90801AA621B
:10372000D8F80000294600F07FF8002806DB606822
:10373000C4F8049017F062FAAFE700250023606830
:10374000636017F05BFA002DA7D0284615F0B7FC90
:10375000A3E700BFAFF3008000CA9A3B000000005F
:1037600008B5064B00214FF40050C3E90001044B9B
:1037700004481B68DB699847002008BD401C0020F6
:10378000043C0020D0D6010008B5064B00214FF4C0
:103790000040C3E90001044B04481B681B6A9847BA
:1037A000002008BD401C0020043C0020D0D60100B1
:1037B00010B5084B1978002081F00101197007F04D
:1037C000B7FC054B0548BDE81040D3E900230EF0D7
:1037D00045B800BF894E0020401C0020100000208A
:1037E000012910B5044604D002290AD00A460A4924
:1037F00004E017F0D2F909490246204613F046F9D1
:1038000008E0506819F099FD054B1B6881B2DB6830
:1038100004489847002010BD0AE401003DFC010067
:10382000043C0020D0D601002DE9FF470C460029BA
:1038300050D08868002850D0C368002B4DD0038A30
:10384000002B4AD014F088F8A368D0F80C90002719
:10385000002B3BD194F849602149236A626A94F8AD
:103860004880FF2EA3FB013A18BFAE3E01FB02AA1F
:1038700018BFB6B2A26A08BF4FF400464FF47A717F
:10388000B2FBF1F29D18174B19784FF0030081F04D
:1038900001014AF1000A197007F04AFC124AFF239D
:1038A0003946484612F0AAFCCDE9025A0F48CDF835
:1038B00000800D4A0E49006873B213F0E7F8204605
:1038C00015F0FDFB002004B0BDE8F0871A8A5B68A4
:1038D0001744BDE76FF01500F5E76FF03C00F2E725
:1038E00040420F00884E00208A4E0020003C0020FD
:1038F0002CE4010030B587B007F006FC01F0E6F9D2
:10390000114B124918604FF4004200231048114C2B
:10391000114DC1E900230DF0A1FF182200216846D6
:1039200019F003FD01238DF800300020A3682B60FF
:1039300017F078F92B686A465B6A0321204698479E
:10394000002007B030BD00BF003C0020401C00201C
:1039500010000020D0D60100043C002030B5044601
:10396000EFF31185402383F31288BFF36F8F044B6D
:103970000FCB84E80F0085F31188BFF36F8F30BD44
:10398000481C002001281FB50C4605D0042822D071
:103990006FF0150004B010BD19F093F9174AC30B6E
:1039A000C0F30E00A0FB0202C00B43EA414340EA11
:1039B0004240C90BC4E90031A0606846FFF7CEFF62
:1039C0006946204612F0CEFB18B90D4B0FCB84E8A8
:1039D0000F000020DEE719F074F9084AC30BC0F3AA
:1039E0000E00A0FB0202C00B43EA414340EA424002
:1039F000C90BC4E90031A060EBE700BF00CA9A3BE5
:103A000020DA010001287FB50C4633D18A681B4BB0
:103A10009A422FD819F055F9C20B42EA414252425C
:103A20004FEAD13363EB4303CDE90023144AC0F3DB
:103A30000E00A0FB0202C30B43EA42435B4268460E
:103A4000029300F0E1F82146684612F08BFBEFF399
:103A50001186402383F31288BFF36F8F9DE80F0018
:103A6000084C84E80F0086F31188BFF36F8F0020A5
:103A700004B070BD6FF01500FAE700BFFFC99A3BB4
:103A800000CA9A3B481C0020014B1B68184700BF26
:103A90001801002030B5044685B00D4610220021E3
:103AA000684619F042FC02238DF802302A46044B86
:103AB00001932146684611F015FF05B030BD00BFE7
:103AC000893A000080B505460E46174698460EF026
:103AD000F3FA034603F0B4F9DFF81890044649F806
:103AE0000030424630463946A84754F8090003F0F2
:103AF00041F900BF080000002DE9F8434469056959
:103B0000C76840F26C73E1170135E41841F1000118
:103B1000022D8CBF00230123E41A61F1000100296A
:103B2000064607F1FF3751DA6FF4C77020184FF4DB
:103B3000C8724FF0000361F10001FFF735F9264B21
:103B400003FB0044D6E90083B6684FEAE37C4FF0FC
:103B50003C0E99466346C6FB0E93A9FB0EC60EFBB0
:103B60000366A30840F26D1E032D0EFB04330246CC
:103B70003B4434BF09206FF0020064270544B4FBC6
:103B8000F7F499201B1B154C45431CEB080C4FF018
:103B9000050005F10205B5FBF0F5A2FB04202B445E
:103BA00004FB010146EBE87698180D4A41F1000349
:103BB00080180C4A63F10003A0FB020102FB031111
:103BC00010EB0C0041EB0601BDE8F8834FF4C8721E
:103BD00000232046B1E700BF70FEFFFFB13A0200AC
:103BE0009405F5FF8051010010B5FFF785FF0246EF
:103BF00003F026F90B4603490024445010461946A9
:103C000010BD00BF0C00000070B5204B82689A42C6
:103C100016DDD0E90016012976F1000503F1010354
:103C200092FBF3F34FEAE3741DDAC91844EB060480
:103C3000C0E90014164901FB03238360012070BD15
:103C4000002AFBDAD0E900410029124EA3EB02035F
:103C5000B3FBF6F310DA01F100459C4275F1000563
:103C60000ADA0020EBE7CD439D426FF00045A5EB5B
:103C70000605A541D9DAF4E7E41A61F1000106FB73
:103C80000322C0E900418260D8E700BFFFC99A3B28
:103C9000003665C400CA9A3B08B500F0B7F80A4977
:103CA00041610A490122C0E900220A6008490A600C
:103CB000084A00231360084A03611360C0E9023315
:103CC000064A136008BD00BF10E70100380100205C
:103CD00034010020103C00200C3C0020083C002057
:103CE0002DE9F04781468846174600F08FF8C368F3
:103CF00004461BB943691A78002A3ED10023E360C9
:103D000063684B4558F8232008DB314B636120463C
:103D100000F060F84FF0FF30BDE8F087511C6161A2
:103D200092F800A0BAF12D0FEFD1951C656156787D
:103D3000A6602D2E04D1927872B901336360E4E756
:103D400056B9234D65615146384619F00AFB0028E3
:103D5000DDD0C4F808A056463146384619F001FBBC
:103D60003A2E00D070B92B7813B9636801336360C1
:103D7000204600F02FF83F20CEE75D1C45611E78FD
:103D80008660E9E743783A2B0BD0002323612B7838
:103D900013B9636801336360204600F01BF8A06824
:103DA000BAE72B780A4A33B96368013399456360EF
:103DB00004DD58F82350C4E90452EAE762613D7813
:103DC0003A2D2046D5D100F005F82846A4E700BFDB
:103DD00010E70100084A01681160084A4168116053
:103DE000074A81681160074AC168074B1160026980
:103DF0001A6003F041BC00BF3801002034010020EC
:103E0000103C00200C3C0020083C0020004870477B
:103E10001C0100202DE9F047058B044628071746B2
:103E20000CD501290CBF45F0100545F02005258370
:103E300087F31188BFF36F8FBDE8F087022905F083
:103E4000070540F09480204612F013FA052864D844
:103E500001A353F820F000BF313E00006F3F000087
:103E60001B3F0000DD3E0000F73E0000093F000060
:103E700001F007035A1F012A1FD8002221F0070171
:103E8000062BD4F8008089B2C4E9002209D1434648
:103E900003E0628B013262831B68002BF9D141F091
:103EA00002012183204612F0E4F94FF000090028B6
:103EB0006DD041F02001218369E0042B0AD121F06B
:103EC000070189B22183204612F0D3F910B141F0E5
:103ED000200121834FF00008C14658E02369D3F840
:103EE0000090238B23F0070343F0060323834FF056
:103EF000000846464BE02369D3F80490238B23F057
:103F0000070343F00403F1E72369D3F80890238BF8
:103F100023F0070343F00503E8E74FF00008C1462C
:103F2000E7E7012243F00803238387F31188BFF3F7
:103F30006F8F002A3BD1B8F1000F4AD1B9F1000FC1
:103F400002D02D492046C847EFF31187402383F361
:103F50001288BFF36F8F238B23F008039BB2238358
:103F6000D9063FD523F01002228303F007056669C6
:103F7000218B002EBFF67CAF0023D4F8008021F007
:103F80000701C4E9003341F0010121839946238BE5
:103F900003F0070AAA4502D0A268002AC1D1B8F1ED
:103FA000000F02D1B9F1000FDAD00022BAE7A16800
:103FB0000029C0D00D680029BDD04F683346524655
:103FC0002046B8471DB12B6829461D46F3E72B460E
:103FD000FAE74146334652462046D8F8008012F0B0
:103FE00074F9A8E79A067FF523AF23F02002228315
:103FF00003F0070527E700BFF7620100014B0360EC
:104000000020704744DB010007B51B491B4813F033
:10401000F8FD70BB1A49194813F0F3FD48BB194964
:10402000164813F0EEFD20BB1749144813F0E9FDC4
:10403000F8B90146154A114814F0CAF8C8B9024641
:1040400013490E48012314F09DF990B90123009300
:10405000014602230948EF2213F0DDFC48B9074866
:1040600013F002FD28B9054803B05DF804EB13F026
:104070002BBD03B05DF804FBB0010020AC080020AC
:104080009801002080010020680100203C010020F0
:10409000A4E4010010B5044616F0A0FC0349024652
:1040A000204612F0F3FC002010BD00BFD4E4010054
:1040B00037B5134600220192044601AA58680A2126
:1040C00001F0ECFC019D95B920EAE0744FF4004C3E
:1040D000294640F2E7304FF47A720023E4FB0C01EA
:1040E000FEF7B2FE18F00DFD284603B030BD2A469B
:1040F0000249204612F0E6FC019DF5E700E50100CB
:1041000008B5034A034912F0C1FC002008BD00BFF6
:10411000EAE50100F0E5010007B5002300906946DB
:1041200004488DF804300EF01FF99DF8040003B028
:104130005DF804FBC965010038B50446EFF311854D
:10414000402383F31288BFF36F8F06F0D3FF02463C
:1041500085F31188BFF36F8F0649204612F096FC55
:104160002046054912F092FC044821460EF016F94B
:10417000002038BD32E6010051E601008141000017
:1041800070B58EB004460D46D0F8A46018F0C5FB9B
:10419000034602F055FE214A1158214A2148002BBE
:1041A00018BF1A460092204A23468C4218BF024686
:1041B00028461E4912F06AFCD4E90A23CDE90023FF
:1041C000284694F90E30A289194912F05FFC06A91D
:1041D000202220460DF0C2FBE36E16490246284617
:1041E00012F054FC05A9204618F0A5FB024628B1A0
:1041F0001149284612F04AFC0EB070BD059B64229E
:10420000F11A4A430091B2FBF6F20C49CDE9016282
:104210002846324612F03AFCEEE700BF08000000E4
:104220005BE60100BDF00100B9FC01005EE60100A3
:104230006AE6010096E60100ADE60100DAE601005B
:1042400030B591B008AD044620220021284619F06F
:104250006CF81A222021284619F067F821461048E8
:104260000EF09CF807AA4FF400610E4818F057FBB7
:10427000079A0095C2F5006164234B43DB0A05935E
:104280004FF40063CDE90132064ACDE9031320461D
:1042900005490023403A12F0F9FB002011B030BD6F
:1042A000AD42000080A400202BE7010070B5044659
:1042B000D0F8A46088B00D4607A918F03CFB024670
:1042C00028B10F49284612F0E1FB08B070BD204626
:1042D00018F023FB079B0096F11ACDE90131094B39
:1042E00064224A43002818BF0346B2FBF6F206498F
:1042F000CDE903622846224612F0C8FBE5E700BF7D
:10430000ADE601005BE6010074E7010038B5134635
:10431000054610225868002111F0F2F90446FFF713
:10432000FBFE38B90E492246284612F0CBFB6FF04F
:10433000150038BD02F084FD0A4B1B589C4204D185
:104340000949284612F0BEFBF1E720460DF0D6FCE5
:1043500028460649224612F099FB0020E9E700BFF3
:10436000D8E7010008000000F3E701001BE80100A6
:1043700038B51346054610225868002111F0C0F9DF
:104380000446FFF7C9FE38B90E492246284612F006
:1043900099FB6FF0150038BD02F052FD0A4B1B5817
:1043A0009C4204D10949284612F08CFBF1E72046D3
:1043B00018F010FB28460649224612F067FB002041
:1043C000E9E700BFD8E70100080000005AE8010053
:1043D00080E8010038B513460546102258680021D0
:1043E00011F08EF90446FFF797FE38B90E492246C0
:1043F000284612F067FB6FF0150038BD02F020FD73
:104400000A4B1B589C4204D10949284612F05AFB1A
:10441000F1E7204602F0AEFC28460649224612F09B
:1044200035FB0020E9E700BFD8E7010008000000E5
:10443000BBE80100E0E8010010B50C46002112F0D5
:10444000DDFD00B10068034A20600023C4E90123B8
:10445000E36010BD00EA010010B50C46002112F027
:10446000D1FD00B10068034A20600023C4E90123A4
:10447000E36010BD00EA010070B5054650681446BF
:1044800012F0C4FD064640B962681049284612F091
:1044900019FB6FF01204204670BD17F0DBFF30B13E
:1044A00062680B49284612F0E3FA0024F3E730462D
:1044B00017F0C7FF6268044628B10346054928463D
:1044C00012F000FBE7E70449ECE700BF18E9010040
:1044D0002DE901004FE901007CE901002DE9F04FD1
:1044E0008FB0044601A8884691460CF003FC019F5A
:1044F0002D4A07EB40170821204612F0ACFA019E26
:10450000BE4203D300200FB0BDE8F08F35680DB177
:104510002B7833B9254A3346302102A811F052F8DE
:1045200002ADB8F1020F07D1D9F80410284618F0EF
:1045300056FF08B92036E3E71D4A2B4608212046DE
:1045400012F089FA304617F085FF1A4A1A4B0821F3
:10455000002808BF1346194A204612F07CFAF36976
:10456000002BE7D01D68002DE4D02B68002BE1D094
:10457000134A0821204612F06EFAAB464FF0000AAB
:104580002B68534505D80F4A0821204612F063FADC
:10459000D0E75BF8043F0C4A0821204612F05BFA92
:1045A0000AF1010AECE700BFAFE90100B9E9010037
:1045B000BEE90100A6E90100A0E9010026E9010029
:1045C000C3E901000FE70100BFE90100F7B5137867
:1045D0003A2B06460F46154614D1541C23783A2B25
:1045E00028D101340A2201A9204611F015F8019AB8
:1045F0003860A242034617D01078A8B93C2B15D9D1
:1046000015490EE00A2201A9284611F005F8019C7F
:10461000B860AC4208D023783A2B05D1172807D9C7
:104620000E49304612F04EFA6FF0150003B0F0BD9F
:104630000134D3E70A2201A9204610F0EDFF019BC7
:104640007860A342F0D01A783A2AEDD13B2801D9FC
:104650000349E6E75C1CC5E768EA01004AEA010095
:1046600058EA01002DE9F04194B00D46044606A930
:1046700001201746FFF786F90BA906A810F0F4FEF3
:10468000032D55D17D680A2205A9284610F0C4FFE4
:10469000059EB542804615D032782D2A12D10136BA
:1046A0000A2205A9304610F0B7FF059B9E4209D0AB
:1046B0001A782D2A06D1451E0B2D0CD92E492046DD
:1046C00012F000FA204612F032FA6FF01505284673
:1046D00014B0BDE8F0815E1C0A2205A9304610F036
:1046E0009BFF059B9E42EDD01B78002BEAD1431E19
:1046F0001E2B01D92149E2E7A8F26C73CDE90F53D3
:10470000BA680E900BA92046FFF760FF0028D9D1A8
:104710000BA8FFF769FAB1F1FF3F08BFB0F1FF3F07
:10472000CDE9060108D11649204612F0CBF9CCE7B5
:10473000022DC7D17A68E5E700230893012006A976
:10474000FFF760F9054628B102460E49204612F0EF
:10475000B9F9BAE70B9B03930C9B02930D9B019352
:104760000E9B109A00930F9B0749013302F26C7263
:10477000204612F08BF9AAE778EA010087EA0100E7
:1047800094EA0100BDEA0100D4EA010010B592B03C
:10479000044604A90120FFF7F5F809A904A810F0C0
:1047A00063FE099B03930A9B02930B9B01930C9B53
:1047B0000E9A00930D9B05492046013302F26C725C
:1047C00012F064F9002012B010BD00BFD4EA01005D
:1047D0002DE9F04114468846074610226068002102
:1047E00010F08EFFB8F1020F06461CD9A0680A220D
:1047F000002110F085FFC5B21F492A46384612F045
:1048000045F9B8F1030F1DD8102D0ED0202D0FD073
:10481000082D0FD13278D2B218490023384612F051
:1048200035F900200CE02025E6E7328892B2F3E764
:104830003268F1E73846124912F028F96FF0150096
:10484000BDE8F081E0681022002110F0BFFF0B46A8
:1048500002460C490446384612F018F9102D06D0CD
:10486000202D07D0082DE5D1E4B23470D9E7A4B2E9
:104870003480D6E73460D4E723EB01004EEB01002F
:1048800038EB010061EB01002DE9F04786B0002311
:104890000193534B91460122074688461A60FFF761
:1048A000FBF94FF0FF3520262C464E4A494640463C
:1048B000FFF716FA431C06D1691C41D14A49384614
:1048C00012F000F917E073281AD0772828D0612851
:1048D00011D1DFF818A101AADAF80000102101F0C7
:1048E000DDF8019B0546002BDFD0DAF800204049B7
:1048F000384612F0E7F86FF0150006B0BDE8F08713
:10490000DFF8E8A001AADAF80000002101F0C6F8FB
:10491000019B0446002BC8D0DAF800203549E7E7B0
:10492000DFF8C8A001AADAF80000002101F0B6F80B
:10493000019B0646002BB8D0DAF800202E49D7E7B5
:10494000621C01D12D49BAE75FFA86F8A8F1080385
:10495000DBB2182BC6F3C40604D8294A22FA03F3A3
:10496000DB0723D427494246384612F08FF8C2E7C6
:10497000B8F1100F21D0B8F1200F24D0B8F1080FF2
:1049800001D10A781A70314433444218102AEFD901
:10499000102CA14628BF4FF0100929464B4602AA09
:1049A000384600F071FF1035A4EB0904B4B1A642FB
:1049B000EED802AB2946701BE7E70A8892B21A705C
:1049C000120A5A70DFE70A681A70C2F3072C120C39
:1049D0009A70120A83F801C0DA70D4E720468CE797
:1049E00034010020B1EB0100B8EB0100083C0020CD
:1049F00077EB01008AEB01009DEB0100D5EB010094
:104A000001010001EFEB010070B50E4E0446337852
:104A10000D4629B123B1BDE870400B4912F052B8E0
:104A200083F0010333702BB10849204612F02EF8B1
:104A300001233370294620460022BDE8704012F061
:104A400090B800BF894F002009EC010044EC010040
:104A50002DE9F041DFF8F0803C4E05460C468F18FA
:104A6000A74201D1BDE8F08198F8002014F8013B7D
:104A7000182A22D1112B20D1354C36492268002624
:104A8000284688F8006012F001F828463146FFF702
:104A9000BBFF314B18780028E4D1304A23681168F5
:104AA000042B2EDC08B12360116013F003012FD119
:104AB000126813681BBA1360D4E7A3F13002092A05
:104AC00088F8003004D923F02002413A052A04D89E
:104AD0003168234A5354013131603368022BBFD10E
:104AE00010221F48002110F00BFE1E4A136803F825
:104AF000010B1360164A13680133136000233360FF
:104B0000AEE7086800BA41F8040B043B0120C7E790
:104B10005B4203F0030358BF5942022904D11268D3
:104B200013885BBA9BB2C6E703299BD11068026861
:104B30001104C2F3074301F47F010B4302F47F42E7
:104B4000134303608EE700BF8A4F0020143C00200F
:104B5000183C00206EEC01008B4F00201C3C002014
:104B60008C4F0020203C00202DE9F8430D462749BA
:104B7000274E00230B602749337080460B60174691
:104B8000012DB94657F8044F1DD92349022220466A
:104B900018F0F4FB70B9A378003B18BF01231C4444
:104BA0001E490222204618F0E9FB28B90123337080
:104BB000013DE5E70023F2E717492046FEF777FAC3
:104BC000C0B909F1040900221146D9F8040010F017
:104BD00097FD134B002211461860D9F8040010F01D
:104BE0008FFD104B104918604046FFF70DFF002065
:104BF000BDE8F88323782D2BE5D16378002BE2D034
:104C00000A492246404611F041FFD1E7143C0020FA
:104C10008B4F0020183C002088EC01008BEC010039
:104C2000203C00201C3C0020514A00008EEC01007A
:104C300013B5094817F00EFC50B100240649074887
:104C4000009401233A2200F073FE204602B010BD0A
:104C50006FF01200FAE700BF10D60100A4D80100DF
:104C600038B54468C4E90012A36044682346402272
:104C700053F8405B63626263002304F13802C4E9C5
:104C80000423C4E90A33C4E90633082223632262F9
:104C9000C4F8B830AB682BB11B6C1BB10949224674
:104CA00028469847AB681B6A0BB1284698470649C7
:104CB000002204F1800018F04CF8C4F8B440002041
:104CC00038BD00BFDD660100BD66010000487047C9
:104CD000A4D8010010B581680446183101F02CF900
:104CE000A168034A20461831BDE8104001F0C4B85D
:104CF00000EE010038B58368D3F88032DB05044646
:104D00001AD4406803685B689847054620B9E06894
:104D100012F046FDA3681D75A3685B6C13B12946AC
:104D200020469847A36802F08BF80022C3F8A82217
:104D3000034B185802F01EF86FF00F05ECE700BFA8
:104D400008000000014911F08BBD00BF0FE7010012
:104D50002DE9F04FA7B004465422002111A818F005
:104D6000E4FA0023CDE90533A36820465C330293BF
:104D700012F067FA204612F0AAF910B96069FFF73D
:104D8000E1FFA06814220021183018F0CEFA204666
:104D900012F0F9F8A168E068B1F854205C310026FF
:104DA00012F0C3FC204612F024FD4FF0FF38B2464B
:104DB000039611AFB3463546B146DDE90532012A07
:104DC0006BD0132B6CD8B8F1000F2AD1BBF1000FB8
:104DD0000AD0204612F02EFDA26814235C3211A9DD
:104DE0000DEB030011F06FFFB9F1000F0CD099F833
:104DF0001130FE2B08D1059B26AA02EB830252F844
:104E0000542C0AB101330593A068436A002B40F08B
:104E1000B580C6B1C369B3422BD00D9600F1180519
:104E200022E0029A0223394606A811F04CFF0699A7
:104E30007A680292034631B101290AD148B16A4A1F
:104E4000204612F08DFA6FF00705284627B0BDE81E
:104E5000F08F059B002B32D0386801F09DF898B197
:104E600066B1A5680D9618350CAE0FCE0FC5336828
:104E70002B602046FFF72EFF0125E6E75B4A012164
:104E8000204612F06DFADEE7059BC3B13A68294669
:104E9000204601F01BFA022809D1059B132B95D956
:104EA000069B022B92D1524B524A0121C8E703289C
:104EB00005D0059B013305934FF0010B7DE7039B64
:104EC0002BB9396807AA484611F0D4FF05460437C4
:104ED00008F1FF38A5B3EB68BBF1000F08D0FBB1B8
:104EE000204612F0AEF9204612F008F9424AC6E711
:104EF000B3B1A368DDF814A0AE4603F1180CBEE808
:104F00000F00ACE80F00DEF80030CCF80030AB68E2
:104F100033B96B7CFE2B04BF95F8108008F1FF3885
:104F2000D5F804C0BCF1000F08D0AE46BEE80F00B3
:104F30000CAE0FC6DEF8003033606646A94603E0CB
:104F4000059B63B101230393B8F1000F03D1069BC6
:104F5000022B7FF432AF059B013305932DE7A36845
:104F6000DB6A13B1DB68002BECD1244B0093244A9D
:104F7000119B0121204612F0F3F9E3E7059D90F81B
:104F80002830A5EB0A05BBB190F829104FF6FF7247
:104F9000FF2918BF0A469D4202D313449D420BD9F4
:104FA0008369184A0121204612F0DAF92046FFF7FA
:104FB00091FE6FF0150548E7012111F070FCA06823
:104FC00011F061FCA36811AA29465B6A02EB8A0210
:104FD000204698470546A06811F059FCA0680021BA
:104FE00011F05DFC31E700BF0EEE010022EE010082
:104FF00083EE010054E5010040EE01006FEE010078
:1050000064F10100A7EE0100F7B5044680680D4683
:10501000817D002949D1D0F880325A0504D511F09C
:1050200049FCE06812F053FBE368DB6873B9002DBC
:105030003BD0A66806F15C07384611F01EFC00283C
:1050400035D0394606F5AE70FEF73BF8A268E06849
:105050000DF106035C32294612F03CFB58B9A068FA
:1050600000F5AE715C30FEF72CF8A0685C3011F0F2
:1050700004FCADF80600204612F0DCF8A368D3F873
:105080007C329B0603D50B49606911F0E9FB204691
:1050900000F06AFDA268BDF80630A2F85630A2689A
:1050A0002046A2F8543012F029F803B0F0BD86F87B
:1050B0005C01CBE7B4DA010010B5836802221A75EF
:1050C00083689B6C0446BBB911F0A1FB8368D3F8DD
:1050D0008032DB040BD50321084B094A12F040F95A
:1050E000A0686FF4805100F5207011F0AAFB2046F3
:1050F000BDE8104000F07EBE10BD00BFC2EE010052
:10510000C0E901002DE9F04FB1B000230446099336
:10511000A36860689E6C026815691EB3DF6C10227C
:1051200009AB1BA9A847099BCBB10121A06811F0CD
:10513000B6FBA06811F0A7FB3B46099A1BA92046C5
:10514000B047A06811F0A3FBA068002111F0A7FBF5
:10515000A3689B6C002BDBD12046FFF7ADFF31B07D
:10516000BDE8F08F09AB01220DF12301A847099B8F
:10517000002BF4D09DF923109DF82330A26800295C
:10518000C6DB517D032900F20C83DFE811F0040037
:10519000800297020A030D2B43D00A2B41D0B2F8AC
:1051A0008012092B21F0FF01A2F880126DD028D8BF
:1051B000002B00F00281082B00F0EC81A268D2F8ED
:1051C0007C12890740F1F980013B162B00F2F58033
:1051D000DFE813F0C402FF010302FB01BE021C0260
:1051E000F300F300F300F30020022402F30039027D
:1051F000F3003E02F300F300F300F3004002F3007B
:1052000055021B2B3DD07F2B00F0D181A3F1200252
:105210005E2AD3D80121A06811F04CFB9DF8231021
:10522000BBE0D2F88012C9B221B1D2F88012C9B263
:105230008B42C3D1B2F8801263F30701A2F8801247
:10524000A568AB7D012B06D16069FFF77BFDA368E4
:1052500002229A7583E7B5F8541061B9284611F017
:1052600029FBE06812F033FA6069FFF76BFD204616
:10527000FFF722FF4CE72046FFF76AFDC5F8AC02B6
:10528000F5E7A36801225A7597E0A068D0F87C3250
:105290009B0740F19280012111F00CFBA068857DF5
:1052A000002D40F08A80B0F85430FF2B00F085804C
:1052B000B0F8562000F15C0100F5AE7018F00EF861
:1052C000A368B3F8562013441BA983F85C51A26865
:1052D000142302F5AE720BA811F0F5FC0B991429FA
:1052E0006BD830AB03EB810343F8545CA368B3F88D
:1052F0005620002A00F05782134493F85B30202B8D
:1053000000F0558221B1093B042B4BD9012948D12A
:1053100000250A950A9B30AA02EB8303002653F866
:1053200054AC504611F0A9FAB34681463746B04610
:1053300016AA4146284600F077FB0346002840D1D4
:10534000012E67D10A9B30AA02EB830353F8540C59
:1053500011F093FAA268064618323946284600F042
:1053600063FB0568284611F088FA864205D0821B47
:1053700092B2A919204612F03BF8A068B0F8563056
:10538000034493F85C30202B33D0093B042B30D9F5
:10539000D0F87C32DF0731D42021204600F0F2FC27
:1053A0000BE0013900200CAB009301900AAB1BAA63
:1053B00011F08BFD05460028ACD1606911F0DCFBD3
:1053C000A6E61B6803934A465146184617F0D6FFD7
:1053D00060B9039B1846FDF77CFE584538BF584618
:1053E0001FFA80FB002E08BF4746013608F101086E
:1053F0009EE70121204611F0B5FEDEE7002111F005
:1054000064FA2021204600F0BDFCA068012111F0C3
:105410005CFAD2E70490D0D90A9A30AB03EB82024F
:10542000B94652F8543C0393184611F026FAA26884
:10543000049B0690A2F840300496A26849461832B0
:10544000284600F0F1FA039BD0F800A0D4F80880B9
:1054500009F10109002B38D0BAF1000F38D0069AB3
:105460001946504617F08AFF0028E6D1BD4811F0D2
:1054700004FAB8F83A2000EB0B0189B2121A504630
:1054800092FBF1F292B20591079211F0F6F90599AB
:10549000079A091A8BB2B8F840100593481CA8F86F
:1054A0004000B1FBF2F002FB101189B200295ED17D
:1054B000AC4BAD4ACDF800A00621204611F050FFBC
:1054C0000599204600F03AFB05E0BAF1000FCDD176
:1054D0000023A8F84030049B013B0493ADD16069E0
:1054E000FFF730FC204600F085FC0A9B30AA02EB57
:1054F000830307F1010953F8540C11F0BEF9394642
:1055000011AA8046284600F08FFA0746A06839683D
:10551000FF2200F5AE7017F043FF3B6803934FF690
:10552000FF77BA4616AA4946284609F1010B00F052
:105530007BFA18B3A168036801F25B11002211F82D
:1055400001EF985C704503D110B101325245F6D19C
:10555000B8F1000F01D0424507DBBA4206F1FF3631
:10556000A8BF3A46012E97B208D0D946DAE77F4A5B
:1055700053460621204611F0F3FEA1E7002F3FF429
:105580001CAF0399A7EB080292B24144204611F0E8
:105590002FFF12E7A068D0F87C329E077FF50DAF91
:1055A000012111F087F9204611F043FF05E7A068BB
:1055B000D0F87C329D077FF500AF012111F07AF918
:1055C000A368D3F87C321807EDD4204611F012FFFF
:1055D000F3E6204611F03EFEEFE6204611F031FEE4
:1055E000204611F074FD10B96069FFF7ABFBA068AD
:1055F000012111F05FF9A3689A7D012A02D10322EB
:105600009A75DAE62046FFF757FDD6E6204611F0F8
:105610002AFED2E6204611F031FECEE6D2F87C32E8
:105620009F0603D55249606911F01AF9A368D3F8AF
:105630007C329E0603D54F49606911F011F920466E
:1056400000F0D8FBB9E600212046FFF7DDFCB4E608
:105650000121F9E7204611F0EDFD204611F0D7F8C1
:105660000121A06811F026F9A368D3F87C329D06C9
:105670007FF5A3AE4049606911F0F2F89DE620463F
:1056800000F0AEFAA068012111F014F995E65B2B49
:1056900002D10223537590E6D2F87C22900706D5FA
:1056A000622B07D14FF0FF31204611F084FDA36833
:1056B0000022E8E5662BFAD10121F5E700215175BA
:1056C000A268D2F87C1289077FF522AD313B1B2BF3
:1056D0003FF673AE01A151F823F000BF5957000007
:1056E0007D570000915700004D570000BB5300004C
:1056F000BB530000BB530000BB530000BB53000072
:10570000BB530000BB530000BB530000BB53000061
:10571000BB530000BB530000BB53000051560000B8
:10572000475600000D560000D3550000BB53000043
:1057300051570000BB5300005D570000BB530000F1
:10574000BB530000BB530000815700000323537577
:10575000204611F076FD30E603235375204611F004
:1057600069FD2AE6BCF0010006EF0100C0E9010076
:10577000B9DA0100BEDA0100B4DA0100032353757F
:10578000A068D0F87C1201F0010181F001013EE631
:1057900003235375A368D3F87C329B077FF50DAEC6
:1057A00013E7002376E700297FF4B0ADB0E50029C8
:1057B0007FF4F8ADACE500BFF7B504468068154648
:1057C00000F52070002932D04FF4804111F02AF802
:1057D000A3681D656068036800219B68984758BBF3
:1057E000204611F0D6F838BB4FF0FF364FF0FF37A8
:1057F000A06800F5217000220721CDE9006717F0AD
:1058000084FBA06811F043F80C4A0421204611F0F3
:105810006BF820460A4A012111F066F860680368B7
:105820005B6903B19847A06811F02DF8E0E76FF4C9
:10583000804111F006F8CBE703B0F0BDF54C000055
:105840006169010010B50B49044611F01FF92046AB
:10585000094911F01BF92046084911F017F92046B3
:10586000074911F013F92046064A002100F004FB15
:10587000002010BD0CEF01004AEF0100A9EF01006C
:10588000FDEF010098F00100F8B516460A462149DF
:1058900004461F4611F0FAF80025AF420ED9725D9A
:1058A0001D49204611F0F2F80135102D0BD06A0782
:1058B000F3D11A49204611F0E9F8EEE718492046DD
:1058C00011F0E4F8F0E71749204611F0DFF8002561
:1058D000BD4213D2725D1449A2F120035F2B28BF91
:1058E0002E22204611F0D2F80135102D0BD06B0777
:1058F000EED10A49204611F0C9F8E9E707492046E8
:1059000011F0C4F8F0E720460849BDE8F84011F06E
:10591000BDB800BFAEF00100B5F00100BDF0010060
:10592000BBF00100BFF00100E1F00100C1F0010097
:105930002DE9F04104468068D0F8A88288B00F466F
:1059400015461E46B8F1000F53D14FF42C72414654
:1059500017F0EBFCA06800F5217017F0CAFAA068F8
:1059600000F524700122114616F034FFA369C3F834
:105970000080A0684FF4007100F5207010F052FF15
:10598000A36850225A87A36818221A8721682046E4
:1059900011F0A6F8A36825F0140262F30705C3F816
:1059A0007C526068144A036839461D682346A8473C
:1059B0000546D0B9A36801221A75D4E9090100226D
:1059C0000023CDE906230E2303930E9B0495CDE916
:1059D00001630094094B4FF400620CF079F8A3685E
:1059E000C3F8A802216A0BF0A9FF284608B0BDE859
:1059F000F0816FF07705F8E721690100B9570000E1
:105A000010B5044613460A460146064801F084FBD9
:105A100023691B7923B12046BDE8104011F0ACB8D2
:105A200010BD00BF916B010038B50B46154648B953
:105A30001449154A521AB3EB920F05D251F823506C
:105A4000284638BD84680CB90025F9E70F4A94420E
:105A50000AD30F4A944207D2184622682946904733
:105A60002B68002BECD1EFE70A4A944202D30A4A92
:105A7000944205D3246814225343E518E358F0E711
:105A80000133F8E7D0D8010008D901000CDA010091
:105A900014DA010008D901000CDA0100F7B5037827
:105AA0002D2B0446154605D16FF015032B60002001
:105AB00003B0F0BD01F0C4F90B4F00230646C351FB
:105AC0000A46204601A90FF01BFEF359222B02D1F2
:105AD0006FF02103EAE7002BE6D1019BA342E3D05C
